:020000040800F2
:10000000005000200D01000813010008170100082E
:100010002F010008330100084B0100080000000018
:100020000000000000000000000000006301000864
:1000300067010008000000006B01000821050008AE
:100040008102000881020008810200088102000884
:100050008102000881020008810200088102000874
:100060008102000881020008810200088102000864
:100070008102000881020008810200088102000854
:100080008102000881020008810200088102000844
:100090008102000881020008810200088102000834
:1000A0008102000881020008810200088102000824
:1000B0008102000881020008810200088102000814
:1000C0008102000881020008810200088102000804
:1000D00081020008810200088102000881020008F4
:1000E000810200088102000881020008000000006F
:1000F0000000000000000000000000000000000000
:1001000000000000000000005FF808F108B500F0F2
:1001100035F800BEFEE71EF0040F0CBFEFF30880B9
:10012000EFF309807146124A104700BEFEE700BE99
:10013000FEE71EF0040F0CBFEFF30880EFF3098019
:1001400071460C4A104700BEFEE71EF0040F0CBFBC
:10015000EFF30880EFF309807146074A104700BEAD
:10016000FEE700BEFEE700BEFEE700BEFEE770470A
:100170002B010008470100085F01000808B500F0E6
:1001800095F82D4B2D4A13602D4A13602D4B2E4AA6
:100190002E498B4204D21168196004330432F7E708
:1001A000264B1A682A4B9A4200D0FEE7244B1A6865
:1001B000284B9A42F9D1204B274A1360274A1360F3
:1001C000274B02E000221A600433264A9342F9D3F7
:1001D000214B1B6813B9214B1B6803B1FEE700F0EC
:1001E00071F8214C214BE41AA4100025AC4211DC1B
:1001F0001F4C204BE41AA4100025AC4210DC00F088
:100200003FF91D4C1D4BE41AA410002C0EDC0120FC
:1002100000F05CF8154B53F8253098470135E5E7B9
:10022000144B53F8253098470135E6E7013C134B52
:1002300053F824309847E8E7BABADECA0000002035
:100240001C000020000000203005000820000020D5
:100250007856341232547698200000202400002072
:100260002000002028000020AC020008AC0200089A
:10027000AC020008AC020008AC020008AC020008A6
:0402800000BEFEE7D7
:100284003005000800000020200000203005000890
:1002940000000000000000002000002028000020D2
:0802A400000000000000000052
:1002AC0008B500F075F8024A024B9A6008BD00BF11
:1002BC000000000800ED00E008B500F091F808BD62
:1002CC00FEE7000082B00023019300932C4A1368D0
:1002DC0043F4803313602A4B1B6803F40033009300
:1002EC00019B01330193009B1BB9019BB3F5A06FDC
:1002FC00F1D1234B1B6813F4003F06D0012300936C
:10030C00009B012B04D002B0704700230093F7E749
:10031C001C4B1A6842F010021A601A6822F007028D
:10032C001A601A6842F004021A60A3F580535A68E6
:10033C005A605A685A605A6842F480625A605A6825
:10034C0022F47C125A605A6842F4E8125A601A6815
:10035C0042F080721A600A4B1B6813F0007FFAD0CF
:10036C00074B5A6822F003025A605A6842F00202A4
:10037C005A60034B5B6803F00C03082BF9D1C2E7FE
:10038C00001002400020024008B5FFF79BFF08BD9B
:10039C0008B5104B1A6842F001021A6059680E4AEF
:1003AC000A405A601A6822F0847222F480321A6071
:1003BC001A6822F480221A605A6822F4FE025A60EB
:1003CC004FF41F029A60FFF7DFFF044B4FF00062FF
:1003DC009A6008BD001002400000FFF800ED00E03C
:1003EC001F4B5B6803F00C03042B15D0082B17D0A4
:1003FC001BB11C4B1C4A1A6002E01A4B1A4A1A60B9
:10040C00174B5B68C3F30313184AD35CDAB2154974
:10041C000B68D3400B607047124B134A1A60EFE71E
:10042C000F4A53685268C3F38343023312F4803F7C
:10043C000AD00B4A526812F4003F0BD00C4A02FB54
:10044C0003F3084A1360DBE7094A02FB03F3054A8E
:10045C001360D5E7044A02FB03F3024A1360CFE7AB
:10046C00001002401400002000127A00040000204A
:10047C0000093D00204B9A6942F010029A611F4A14
:10048C004FF400501061516841F4A001516050616B
:10049C009A6942F400629A619A6942F400629A6124
:1004AC00174B1B68174AA2FB03239B09013BB3F1B3
:1004BC00807F09D2144A5360144BF02183F8231027
:1004CC000023936007231360114B1A6803E00B4B56
:1004DC004FF4005119610E4B1B689342FBD102F58E
:1004EC00FA72064BDB6813F4005FF0D0034B4FF449
:1004FC0000515961EFE700BF0010024000100140AD
:10050C0014000020D34D621010E000E000ED00E07C
:10051C0018000020024A136801331360704700BFB3
:04052C001800002093
:10053000785634120000000000000000010203049D
:100540000607080900A24A04010000003254769808
:040000050800017D71
:00000001FF
